:100000002EC052C051C050C04FC000CA4DC04CC0DD
:100010004BC04AC049C048C047C046C045C02DC3B8
:100020002CC330C33AC34CC391C35BC35CC35EC330
:1000300060C36BC383C386C30102000004000102D6
:100040000408102002020202020200000000360032
:1000500000000000380000000000370001091124F2
:100060001FBECFE5D2E0DEBFCDBF10E0A0E6B0E01E
:10007000E8E4F9E102C005900D92A838B107D9F77C
:1000800020E0A8E8B0E001C01D92AC3FB207E1F764
:1000900010E0CFE2D0E003C02197FE01ADDBCE320D
:1000A000D107D1F79ED94ECCABCFFC018585968583
:1000B0000895CF93DF9300D000D000D0CDB7DEB746
:1000C000AB011C821D821E82DC01ED91FC9101902E
:1000D000F081E02D19821A821B829E012F5F3F4F13
:1000E000BE016C5F7F4F099526960FB6F894DEBF70
:1000F0000FBECDBFDF91CF91089580E991E00895C3
:10010000B89A0895FC01608178C760E081E05BDA0D
:1001100080919400811145C010929F0010929E0022
:100120008FEF8093A2008093A3008093A40080931C
:10013000A5008093A6008093A70081E08093A8008B
:100140001092AA001092A9001092A1001092A00093
:100150008091E4009091E500892B31F48CE990E0E6
:100160009093E5008093E400E091E200F091E300D9
:10017000309721F08CE990E0958384838CE990E0BE
:100180009093E3008093E2001092AC001092AB00D9
:100190008AE690E090939D0080939C0081E080939C
:1001A000940020E030E04AE050E065EB70E08CE93C
:1001B00090E0EDC7CF93FC01C62F8091AD00811177
:1001C0000CC0808180938C00818180938D0082811E
:1001D00080938E0081E08093AD008091D300909158
:1001E000D4000B976CF01092D4001092D300808151
:1001F00080938C00818180938D00828180938E001A
:100200008091D3009091D40063E070E066DAFC0145
:10021000EB54FF4F80918C00808380918D0081830F
:1002200080918E00828386EE90E06CDF6C2F70E010
:1002300080E090E0CF9166C9CF93FC01C62F20816A
:1002400091818281E5EBF0E0208391838283339674
:1002500030E0E33DF307C1F786EE90E053DF6C2F0B
:1002600070E080E090E0CF914DC90F931F93CF9342
:10027000DF9300D01F92CDB7DEB78C0169838FEF7B
:100280008A838B83B801CE010196BED7C8010F9037
:100290000F900F90DF91CF911F910F910895EF92E2
:1002A000FF920F931F93CF93DF9300D01F92CDB790
:1002B000DEB7E82E05EB10E0F12C6091D3006F0D56
:1002C000CE010196D2DF8981F80180838A81818302
:1002D0008B818283F3940D5F1F4FFAE0FF12EDCF05
:1002E00086EE90E00FDF6E2D70E080E090E00AD99E
:1002F0000F900F900F90DF91CF911F910F91FF9072
:10030000EF900895AF92BF92DF92EF92FF920F931A
:100310001F93CF93DF9300D01F92CDB7DEB7D82EB7
:1003200005EB10E0E12CF12C8AE0A82EB12CC701DE
:10033000B50111DA8091D300680FCE01019695DFE7
:100340008981F80180838A8181838B818283F39400
:100350000D5F1F4FE1148AE0F80649F786EE90E042
:10036000D1DE6D2D70E080E090E0CCD80F900F9042
:100370000F90DF91CF911F910F91FF90EF90DF9041
:10038000BF90AF9008958F929F92AF92BF92CF92FD
:10039000DF92EF92FF920F931F93CF93DF9300D0E2
:1003A0001F92CDB7DEB78C016B017A016AE070E075
:1003B00080E090E0DDD7CB0163E070E08ED98B5414
:1003C0009F4FF6012081FC012083CF01F60121819E
:1003D000FC012183CF01F6012281FC01228386EEFC
:1003E00090E090DEB701FF0C880B990B8BD824EFBF
:1003F00031E040E050E06EE170E080E090E0D0D786
:10040000F8018081898381818A8382818B83CE01F7
:10041000019612DF0F900F900F90DF91CF911F91F7
:100420000F91FF90EF90DF90CF90BF90AF909F9093
:100430008F9008952F923F924F925F926F927F928A
:100440008F929F92AF92BF92CF92DF92EF92FF92E4
:100450000F931F93CF93DF93CDB7DEB728970FB6D7
:10046000F894DEBF0FBECDBF180105EB10E02901E7
:10047000330F660877084A01550FAA08BB089B018D
:10048000770F440B550B2D833E834F8358876C01A8
:10049000990FEE08FF08A3019201C501B40180D7AE
:1004A0006C832D813E814F815885C701B60178D775
:1004B00069833FEF3A834C814B83B801CE010196AB
:1004C000A3D60D5F1F4F50E0033D150721F786EEC1
:1004D00090E018DEB101330C880B990B13D82896E5
:1004E0000FB6F894DEBF0FBECDBFDF91CF911F9145
:1004F0000F91FF90EF90DF90CF90BF90AF909F90C3
:100500008F907F906F905F904F903F902F900895C5
:100510000F931F93CF93DF9300D01F92CDB7DEB719
:100520008C018091D3009091D40080319105E8F442
:10053000FC01E858FF4F808189838A838B838091F7
:100540008A0090918B0063E070E0C7D8BC016B54C7
:100550007F4FCE01019658D686EE90E0D3DDB801EC
:10056000110F880B990BCED717C02AE030E040E07E
:1005700050E060E070E0CB0113D770938B00609384
:100580008A001092D4001092D30019821A821B8222
:1005900060E0CE01019650DE0F900F900F90DF913A
:1005A000CF911F910F9108950F931F93CF93DF93D6
:1005B00000D01F92CDB7DEB78C018091D30090910F
:1005C000D40080319105D0F4FC01E858FF4F8081C0
:1005D0009CE399839FEF9A838B838091880090910D
:1005E000890063E070E079D8BC016B547F4FCE0185
:1005F00001960AD686EE90E085DD21C064E170E0C8
:1006000080E090E0B5D6672B682B692BC1F42AE017
:1006100030E040E050E060E070E0CB01C1D6709384
:100620008900609388001092D4001092D300198240
:100630001A821B8260E0CE010196FEDD05C0B80182
:10064000110F880B990B5ED70F900F900F90DF91D1
:10065000CF911F910F9108950F931F93CF93DF9325
:1006600000D000D000D0CDB7DEB78D30910508F0B6
:100670006DC0FC01E15FFF4F09948FEF89838A838E
:100680001B8206C08FEF898383E98A8389E28B838B
:1006900060E0CE010196D0DD62C020E530E040E0B0
:1006A00050E06EE170E080E090E07AD68B012FEFB1
:1006B00030E048EC50E062E270E08BE090E023C074
:1006C0008FEF89838A838B831C821D828FE18E83C7
:1006D00042E350E0BE016F5F7F4FCE01049653DED0
:1006E0003EC082E301C081E0DADD39C08AE00ADE83
:1006F00036C002E310E02FEF30E04FEF50E067E646
:1007000071E080E090E096DE2AC06FEF70E080E05C
:1007100090E02ED6162F6FEF70E080E090E028D6A4
:10072000062F6FEF70E080E090E022D669830A83A5
:100730001B8364E6CE0101963DDD11C086E490E0A6
:10074000E7DE0DC084E690E02FDF09C08091D50080
:100750009091D60001969093D6008093D500809119
:10076000D3009091D4008F3F91051CF02FEF3FEF05
:1007700005C01816190634F021E030E0309365000A
:10078000209364002091640030916500820F931FD4
:100790009093D4008093D30026960FB6F894DEBFD2
:1007A0000FBECDBFDF91CF911F910F9108950F9391
:1007B0001F9381E057D7892BA1F072D600918F004B
:1007C000109190002091910030919200DC01CB01BA
:1007D000801B910BA20BB30B81329340A105B10595
:1007E00088F48091D5009091D6000D9724F0109256
:1007F000D6001092D5008091D5009091D6001F911F
:100800000F912ACF1092D4001092D30049D6609352
:100810008F0070939000809391009093920080914C
:10082000D5009091D60001969093D6008093D50084
:10083000D8CF9F92AF92BF92CF92DF92EF92FF926A
:100840000F931F93CF93DF93FC01C080D18028B317
:100850002160B22E98B39E7F98BB61858681062F5A
:10086000081B802F06837785A281B3813485458557
:10087000568599249394930E4F5F5F5FF780E084D1
:10088000C285D385F6011081A12C0A2D2A2D3A2D7F
:100890003081112788943111380F08F43FEF81958A
:1008A000889490FC130F1795889491FC130F17955B
:1008B000889492FC130F1795889493FC130F179547
:1008C000889494FC130F1795889495FC130F179533
:1008D000889496FC130F1795889497FC130F17951F
:1008E0008894032F9110012F860F102F002CB8BA77
:1008F00000C000C017FF98BB31810027889400C05A
:10090000002C98BB31113F0D00C0002CB8BA00C0BC
:1009100000C016FF98BB08F43FEFF194889400C024
:10092000002C98BB40FD030F00C0002CB8BA00C0DB
:1009300000C015FF98BB0795889441FD030F00C0C8
:10094000002C98BB0795889400C0002CB8BA00C052
:1009500000C014FF98BB42FD030F0795889400C0A8
:10096000002C98BB43FD030F00C0002CB8BA00C098
:1009700000C013FF98BB0795889444FD030F00C087
:10098000002C98BB0795889400C0002CB8BA00C012
:1009900000C012FF98BB45FD030F0795889400C067
:1009A000002C98BB46FD030F00C0002CB8BA00C055
:1009B00000C011FF98BB0795889447FD030F00C046
:1009C000002C98BB0795889400C0002CB8BA00C0D2
:1009D00000C010FF98BB132F4111102FFC0E00C058
:1009E000002C98BB00C000C0002CB8BA00C000C0EA
:1009F00017FF98BB32810027889400C0002C98BB59
:100A000031113E0D00C0002CB8BA00C000C016FF66
:100A100098BB08F43FEFE70FF11D00C0002C98BB16
:100A200050FD030F00C0002CB8BA00C000C015FF75
:100A300098BB0795889451FD030F00C0002C98BB0C
:100A40000795889400C0002CB8BA00C000C014FFFD
:100A500098BB52FD030F0795889400C0002C98BBEB
:100A600053FD030F00C0002CB8BA00C000C013FF34
:100A700098BB0795889454FD030F00C0002C98BBC9
:100A80000795889400C0002CB8BA00C000C012FFBF
:100A900098BB55FD030F0795889400C0002C98BBA8
:100AA00056FD030F00C0002CB8BA00C000C011FFF3
:100AB00098BB0795889457FD030F00C0002C98BB86
:100AC0000795889400C0002CB8BA00C000C010FF81
:100AD00098BB132F5111102FE19400C0002C98BB2C
:100AE000ED0E00C000C0B8BA00C000C017FF98BB30
:100AF00030810027889400C0002C98BB3111380F3A
:100B000000C0002CB8BA00C000C016FF98BB08F4A3
:100B10003FEF8195889400C0002C98BB90FC030F98
:100B200000C0002CB8BA00C000C015FF98BB0795E4
:100B3000889491FC030F00C0002C98BB0795889403
:100B400000C0002CB8BA00C000C014FF98BB92FCD3
:100B5000030F0795889400C0002C98BB93FC030FEB
:100B600000C0002CB8BA00C000C013FF98BB0795A6
:100B7000889494FC030F00C0002C98BB07958894C0
:100B800000C0002CB8BA00C000C012FF98BB95FC92
:100B9000030F0795889400C0002C98BB96FC030FA8
:100BA00000C0002CB8BA00C000C011FF98BB079568
:100BB000889497FC030F00C0002C98BB079588947D
:100BC00000C0002CB8BA00C000C010FF98BB132FA3
:100BD0009110102F860F00C0002C98BB119709F0C0
:100BE00086CEDF91CF911F910F91FF90EF90DF9014
:100BF000CF90BF90AF909F900895EF92FF920F9388
:100C00001F93CF93DF93EC018B0156D42F85388946
:100C1000621B730B6A307105C0F3F894C80109DEDA
:100C2000F801E280F380B7010F2C000C880B990BC0
:100C300020EE31E040E050E061D58B019C01F4E012
:100C40003695279517950795FA95D1F7C7016BE962
:100C500070E043D5492F50E0D901C801840F951F9A
:100C6000A11DB11D893EF3E09F07A105B10590F1DB
:100C7000885E9340A109B10922E0B695A7959795A2
:100C800087952A95D1F79C0143E0220F331F4A959F
:100C9000E1F7232F33276091D70070E0860F971F6D
:100CA000820F931F4091F4005091F5006091F6007F
:100CB0007091F700292F3327420F531F611D711DBB
:100CC0004093F4005093F5006093F6007093F700A2
:100CD0008093D7007894F0D3788B6F87DF91CF9192
:100CE0001F910F91FF90EF900895FC01118A108AD7
:100CF00008950F931F93CF93DF93209193002F5F5D
:100D0000322F37703093930020FF02C020E801C0DB
:100D100020E031FD2064347009F02062205FFC0186
:100D2000EC01239600E011E030E06485662331F0A9
:100D300070E0C80110D541E0460F01C040E0418796
:100D4000842F90E00196B901C8D4911102C0168297
:100D500002C091509683442311F04150418731964F
:100D6000CE17DF0711F7DF91CF911F910F910895F3
:100D7000EF92FF920F931F93CF93DF93CDB7DEB720
:100D800062970FB6F894DEBF0FBECDBF8C017A011B
:100D9000F901DC011C968C917A8369835C834B8317
:100DA0005E834D8390819D8791819E8792819F87ED
:100DB000813021F4CE0101969CDF06C01C861B8683
:100DC0001A86198618861F8283E0888BB701CE01A8
:100DD00001968BDFD801ED91FC910484F585E02D1F
:100DE000BE016F5F7F4FC801099562960FB6F894F8
:100DF000DEBF0FBECDBFDF91CF911F910F91FF904E
:100E0000EF900895EF92FF920F931F93CF93DF938C
:100E1000CDB7DEB762970FB6F894DEBF0FBECDBF79
:100E20008C017A01F901DC011C968C917A8369832B
:100E30005C834B835E834D8390819D8791819E87E8
:100E400092819F87813021F4CE01019652DF06C046
:100E50001C861B861A86198618861F82188AB70177
:100E6000CE01019642DFD801ED91FC910484F58515
:100E7000E02DBE016F5F7F4FC801099562960FB6E6
:100E8000F894DEBF0FBECDBFDF91CF911F910F91C0
:100E9000FF90EF9008954F925F926F927F92AF9282
:100EA000BF92CF92DF92EF92FF920F931F93CF9357
:100EB000DF938C01FC01108211821282662391F172
:100EC000EA0179016C015A01F3E0AF0EB11C462E24
:100ED000512C612C712C69916623D9F0F701208186
:100EE0002223B9F0862F90E0A0E0B0E0BC01CD0154
:100EF0006F5F7F4F8F4F9F4F30E040E050E02F5F9C
:100F00003F4F4F4F5F4FFAD3A3019201F7D3F60142
:100F10008083FFEFEF1AFF0A8FEFC81AD80ACA15AD
:100F2000DB05C9F6C801DF91CF911F910F91FF90AA
:100F3000EF90DF90CF90BF90AF907F906F905F90D9
:100F40004F900895FC018FEF8083128211821486E6
:100F500013868FEF9FEFDC0187839087A187B2878D
:100F60000895CF92DF92EF92FF920F931F93CF934A
:100F7000DF932091DC003091DD00A9014F5F5F4FCE
:100F80005093DD004093DC00261737076CF1EC012D
:100F900087D28B019C018091DC009091DD0068EE8E
:100FA00073E09BD3BC01990F880B990BC090D800BC
:100FB000D090D900E090DA00F090DB00A901980110
:100FC0002C193D094E095F09D9D33A832983109220
:100FD000DD001092DC0064D26093D8007093D900D9
:100FE0008093DA009093DB00DF91CF911F910F91F6
:100FF000FF90EF90DF90CF900895AF92BF92CF9285
:10100000DF92EF92FF920F931F93CF93DF9300D065
:101010001F92CDB7DEB77C01D62EF7018381948174
:10102000A581B681892B8A2B8B2BC9F045D20091E3
:10103000DE001091DF002091E0003091E100DC0142
:10104000CB01801B910BA20BB30BF7010381148121
:101050002581368180179107A207B307F0F22CD2C1
:101060006093DE007093DF008093E0009093E100D6
:10107000D7011B96ED91FC911C97309751F0D70149
:1010800017964D915D916D917C911A978D2D0995D3
:10109000D82E0091E4001091E5000115110571F1C1
:1010A000F801C484D70111968D919C9112978436D2
:1010B000910508F41486D801ED91FC91A280B380CB
:1010C0009801275F3F4FA8014A5F5F4F6D2DCE010A
:1010D0000196E1DEF80145855685628173819E01A6
:1010E0002F5F3F4FC801F5010995D8011C96CC929E
:1010F0001C9714960D911C911597CFCF69E170E064
:10110000C7012FDF0F900F900F90DF91CF911F91AC
:101110000F91FF90EF90DF90CF90BF90AF90089528
:10112000CF93DF93EC014423D9F06115710561F190
:101130009B0140E050E060E472E48FE090E040D337
:101140008B819C81AD81BE8182179307A407B5076F
:1011500010F4DA01C9018B839C83AD83BE8314C074
:101160006115710569F09B0140E050E060E472E4B4
:101170008FE090E025D32B833C834D835E8304C0B6
:101180001B821C821D821E82DF91CF910895CF9217
:10119000DF92EF92FF920F931F93CF93DF93EC01B7
:1011A0007B016A018901121613061CF08A01C12C09
:1011B000D12CE881F9810480F581E02DCE010995DB
:1011C000C60163E070E089D28E0D9F1D9B838A83E8
:1011D0001E870D87E881F9810284F385E02DCE0119
:1011E000099541E0BC0186EE90E09ADFCE01DF91E7
:1011F000CF911F910F91FF90EF90DF90CF900895C6
:10120000089586EE90E09ECECF93DF93DC01EB0154
:101210004C911196EC9111971296FC91A42FAF71FD
:10122000AA0FAA0FAA0FB0E0CD0166E570E055D273
:10123000292F842F8074342F307247FD1EC08111F6
:101240000BC0311104C0892F8095492F0FC045E58F
:10125000490F30E02BEA2FC031110AC0CD016BEAF3
:1012600070E03BD28BEA891B4AEA420F282F23C049
:1012700080E0492F4095392F0CC081110FC03111EA
:101280000AC0CD016BEA70E028D24BEA491B35E574
:10129000390F20E010C0392F30950CC0311104C037
:1012A00085E5890F3BEA04C08AEA890F90E035E5BD
:1012B000321B282F40E0EF3F51F1EE2329F122238A
:1012C00039F08E2F90E0622F70E0019606D2292F20
:1012D000442339F08E2F90E0642F70E00196FDD109
:1012E000492F332339F08E2F90E0632F70E0019661
:1012F000F4D1392FE0956E2F70E0CB010196EDD13E
:10130000290F490F390F03C03FEF4FEF2FEFFF3F7A
:1013100049F16F2F70E0E1E0F11101C0E0E0CB0195
:10132000DCD1E90FE1F0222339F08E2F90E0622F1B
:1013300070E00196D2D1292F442339F08E2F90E00E
:10134000642F70E00196C9D1492F332359F08E2FB5
:1013500090E0632F70E00196C0D1392F03C030E0D8
:1013600040E020E0288349833A83DF91CF910895BC
:10137000CF92DF92EF92FF92611571058105910581
:1013800039F06B017C0188D2A701960119D203C004
:1013900060E070E0CB01FF90EF90DF90CF90089578
:1013A000CF92DF92EF92FF920F931F936217730712
:1013B000840795077CF489019A016B017C01C901BE
:1013C000B8016C197D098E099F09D2DF6C0D7D1D56
:1013D0008E1D9F1D1F910F91FF90EF90DF90CF907A
:1013E000089581B781BFB8D090D6E1D9FECF80B73C
:1013F000807F80BF80B7806880BF8CB580648CBDE3
:101400008FEF8DBD80B7876080BF08951F920F92C8
:101410000FB60F9211242F933F938F939F93AF9307
:10142000BF938091F4009091F500A091F600B091E7
:10143000F7003091F30023E0230F2D3730F026E83A
:10144000230F0296A11DB11D03C00196A11DB11D60
:101450002093F3008093F4009093F500A093F6009E
:10146000B093F7008091F8009091F900A091FA00F4
:10147000B091FB000196A11DB11D8093F8009093DF
:10148000F900A093FA00B093FB00BF91AF919F9138
:101490008F913F912F910F900FBE0F901F90189535
:1014A0002FB7F8946091F4007091F5008091F600E8
:1014B0009091F7002FBF08953FB7F8948091F800FE
:1014C0009091F900A091FA00B091FB0022B708B604
:1014D00001FE05C02F3F19F00196A11DB11D3FBFB0
:1014E000BA2FA92F982F8827820F911DA11DB11DFA
:1014F000BC01CD0142E0660F771F881F991F4A95F6
:10150000D1F70895CF92DF92EF92FF92CF93DF93BE
:101510006B017C01D1DFEB01C114D104E104F104C2
:10152000A1F06EDEC9DF6C1B7D0B683E7340A0F33B
:10153000C114D104E104F10479F381E0C81AD1089F
:10154000E108F108C851DC4FEDCFDF91CF91FF905A
:10155000EF90DF90CF9008958AB582608ABD8AB5FA
:1015600081608ABD83B7887F836083BF789489B7A1
:10157000826089BF3CDF86B1876886B9379A089553
:10158000813031F48AB58F778ABD8AB58F7B07C0E9
:10159000823039F48AB58F7D8ABD8AB58F7E8ABD47
:1015A0000895833039F480B78F7D80BF80B78F7EF8
:1015B00080BF0895843031F48CB58F7D8CBD8CB59F
:1015C0008F7E8CBD0895CF93DF9387FF11C08F77F7
:1015D00041F0813041F0823041F0833041F08FEFB3
:1015E00007C085E005C082E003C084E001C083E05D
:1015F00090E0FC01E25CFF4F2491FC01EC5BFF4FAB
:101600008491882361F190E0880F991FFC01EA5AC8
:10161000FF4FC591D491FC01E05BFF4FA591B491C0
:10162000611109C09FB7F89488812095822388832F
:10163000EC912E230BC0623061F49FB7F89488813F
:10164000322F309583238883EC912E2B2C939FBFD0
:1016500006C08FB7F894E8812E2B28838FBFDF91C7
:10166000CF910895CF93DF9387FF11C08F7741F01B
:10167000813041F0823041F0833041F08FEF07C07C
:1016800085E005C082E003C084E001C083E0282F2C
:1016900030E0F901E85CFF4F8491F901E25CFF4F13
:1016A000D491F901EC5BFF4FC491CC2389F08111F7
:1016B00067DFEC2FF0E0EE0FFF1FE65BFF4FA59119
:1016C000B491EC91ED2381E090E021F480E002C040
:1016D00080E090E0DF91CF9108950024552704C069
:1016E000080E591F880F991F009729F07695679566
:1016F000B8F37105B9F7802D952F0895EE27FF27D0
:10170000AA27BB2708C0A20FB31FE41FF51F220F93
:10171000331F441F551F969587957795679598F3C6
:101720007040A9F7009799F7BD01CF010895AA1B52
:10173000BB1B51E107C0AA1FBB1FA617B70710F0BC
:10174000A61BB70B881F991F5A95A9F780959095EE
:10175000BC01CD01089597FB072E16F4009406D026
:1017600077FD08D0E4DF07FC05D03EF49095819525
:101770009F4F0895709561957F4F0895A1E21A2EAD
:10178000AA1BBB1BFD010DC0AA1FBB1FEE1FFF1F25
:10179000A217B307E407F50720F0A21BB30BE40B75
:1017A000F50B661F771F881F991F1A9469F76095BC
:1017B0007095809590959B01AC01BD01CF01089576
:1017C000052E97FB16F400940FD057FD05D0D6DFF9
:1017D00007FC02D046F408C05095409530952195FD
:1017E0003F4F4F4F5F4F089590958095709561954D
:1017F0007F4F8F4F9F4F0895EE0FFF1F0590F4917D
:10180000E02D09948F929F92AF92BF92CF92DF9278
:10181000EF92FF92CF93DF93EC01688179818A8107
:101820009B81611571058105910521F464E279EDD3
:101830008BE597E02DE133EF41E050E0C1DF490156
:101840005A0127EA31E440E050E058DF6B017C01A7
:101850002CEE34EF4FEF5FEFC501B4014FDFDC0139
:10186000CB018C0D9D1DAE1DBF1DB7FF03C00197A1
:10187000A109B04888839983AA83BB83BC01CD01A9
:101880009F77DF91CF91FF90EF90DF90CF90BF9047
:10189000AF909F908F9008958F929F92AF92BF923A
:1018A000CF92DF92EF92FF926091600070916100A1
:1018B0008091620090916300611571058105910529
:1018C00021F464E279ED8BE597E02DE133EF41E01F
:1018D00050E076DF49015A0127EA31E440E050E068
:1018E0000DDF6B017C012CEE34EF4FEF5FEFC50194
:1018F000B40104DFDC01CB018C0D9D1DAE1DBF1DAD
:10190000B7FF03C00197A109B0488093600090938E
:101910006100A0936200B0936300BC01CD019F778A
:10192000FF90EF90DF90CF90BF90AF909F908F90FF
:1019300008956093600070936100809362009093BB
:0819400063000895F894FFCF45
:10194800010000000100000000000207B806800046
:10195800590055007D00FD0500346795BDDCF2FD9A
:08196800FDF2DCBD96683500BC
:00000001FF
